:10000000001000206D030000B3500000B35000004A
:10001000B3500000B3500000B3500000B3500000D4
:10002000B3500000B3500000B3500000B3500000C4
:10003000B3500000B3500000B3500000B3500000B4
:10004000B350000011090000BD370000B35000009C
:10005000B350000021350000B3500000B350000041
:10006000B3500000B3500000B35000003509000049
:10007000B3500000B3500000B3500000B350000074
:10008000B3500000B3500000B3500000B350000064
:10009000B3500000B3500000B3500000B350000054
:1000A000B3500000B3500000B3500000B350000044
:1000B000B3500000B350000055240000B3500000BE
:1000C000B3500000B3500000B3500000B350000024
:1000D000B3500000B3500000B350000010B5054C01
:1000E000237833B9044B13B10448AFF300800123E4
:1000F000237010BDA010002000000000AC650000BF
:1001000008B5034B1BB103490348AFF3008008BD9A
:1001100000000000A4100020AC650000A3F5803AA8
:10012000704700BF174B002B08BF134B9D46FFF7CE
:10013000F5FF00218B460F461348144A121A05F0AA
:100140004EFA0E4B002B00D098470D4B002B00D0E1
:1001500098470020002104000D000D48002802D01F
:100160000C48AFF3008003F077FF2000290000F077
:1001700013F803F05DFF00BF00000800000000005E
:100180000000000000100020A0100020581C0020DB
:10019000000000000000000008B505F0D7F804F0EA
:1001A0006BFF034803F07CFF03F052FD002008BD05
:1001B0009058000010B501F011F901210F4800F02E
:1001C00065FE01220020114601F0B0F801220C4C1E
:1001D0001146A36A002023F4803323F0030343F085
:1001E0000203A36201F0A2F8A36A002023F48013A3
:1001F00023F00C0343F00803A36210BDD0433E007C
:1002000000800C400122184B13B51A6401F0B6FBB4
:10021000044601A801F08AFB0F2C12D99DF8043086
:10022000022B0ED99DF80520022A01D1042B08D0FB
:100230000E4AD2F8C03023F0500343F01003C2F846
:10024000C03001F08BFC00F08BF804F0FDFF01F0F2
:100250006FFCFFF7AFFF01F05BFC00F075F802B038
:10026000BDE8104001F062BD00000C4000800C4071
:10027000014804F029BF00BFA8580000014804F05D
:1002800095BF00BFC0580000294A536C43F4005387
:100290005364284BD3F8201141F00401C3F8201116
:1002A000D3F8201121F44071C3F82011D3F8B8100D
:1002B00021F47061C3F8B810D3F8B81041F480612C
:1002C000C3F8B81010231362D36A9B06FCD51A4BEF
:1002D000D3F8F02042F00102C3F8F020D3F8FC205C
:1002E00042F08072C3F8FC20144AA3F55D431A6003
:1002F0000F2203F57C331A610222C3F8F0204FF479
:100300008072C3F804234FF060430D4AC3F8B02F46
:100310000C4AC3F8802ED3F8002E42F00102C3F835
:10032000002ED3F8002E42F00202C3F8002E7047D0
:1003300000800C400060004000ED00E0FF13014031
:1003400055CEACC50900010008B50121034800F0F5
:100350009DFDBDE8084004F091BE00BF00D204003E
:100360000121014800F092BD00D2040008B500F060
:10037000B9F8124B12498B4212D30020114B12498B
:100380008B4218D3FFF7CEFE186850F82240586809
:1003900040F82240013298688242F5D30C33EAE7F4
:1003A0000022F8E71C6844F8220001325C68A2428F
:1003B000F8D30833E4E70022F8E700BFB465000093
:1003C000C0650000C0650000C065000000487047BF
:1003D000006CDC02254AD36A03F47053B3F5805FE6
:1003E0003AD0B3F5005F04D0B3F5006F0BD1204BCA
:1003F00000E0204B1B681D4A1068C0F382300130BA
:10040000B3FBF0F07047D36803F4E063B3F5407FCB
:1004100025D008D8B3F5807F0ED0B3F5007F20D06B
:10042000A3B10023E7E7B3F5806F1CD0B3F5A06F4D
:10043000114B18BF0023DEE7104B1148D3F8FC2006
:10044000104BB2F1985F38BF0346D4E70B4B0E4810
:10045000D3F8FC200D4BF4E74FF40043CBE70C4BF3
:10046000C9E70C4BC7E70C4BC5E700BF00800C4049
:100470000410002008100020003FAB010081E00FB5
:10048000C0CF6A0040B5640040420F00804F1200A8
:10049000809FD500C0D8A700406F400108B5FFF786
:1004A00099FF044B5B6803F00F03D840024B1860C0
:1004B00008BD00BF00800C4000100020014B1868F0
:1004C000704700BF04100020044B1860044BDB6A27
:1004D0001B0501D5FFF7E2BF704700BF04100020E5
:1004E00000800C40014A024B9A60704700000000F7
:1004F00000ED00E0014B1868704700BF08100020B5
:1005000038B504460D4601B118B93721034804F047
:10051000D7FD23682B60256038BD00BFD858000088
:100520000346054A0549106803448B428CBF4FF0CF
:10053000FF301360704700BF0C1000200000022045
:10054000042838B505460C4614D9052804D141F6CF
:10055000FF73E340DB0704D440F2CF31074804F0D7
:10056000AFFD242045430649294404EBC104A400FF
:10057000206838BD4FF6FF73EBE700BF2E5900002F
:100580001C60100237B5046801210546164800F0CA
:100590007DFC002301226179207901F051F9617914
:1005A0002079FFF7CDFFB0FA80F35B092370A379C0
:1005B000022B15D100F068F92A460C49607900F049
:1005C0008DF9FF28054603D15C21094804F078FD28
:1005D0000123617920792A46CDE9003301F0D6F86C
:1005E000002003B030BD00BF00D20400D550000091
:1005F0008259000008B50121284800F047FC01237A
:1006000004220221052001F01BF9002001F0A8F8C6
:100610000122234B1146C3F80824042000F086FE73
:10062000204800F04BFD204B00F5D520D3F8F020FA
:1006300000F2FC4042F00102C3F8F020D3F8FC20A5
:1006400042F08072C3F8FC20184AA3F55D431A609B
:10065000174B0222B0FBF3F0164B01381861C3F8B8
:10066000F0204FF48072C3F804234FF06043124A25
:100670000020C3F8B02F114AC3F8802ED3F8002E03
:1006800042F48072C3F8002EFF2283F82020D3F8B2
:10069000002E22F48072C3F8002E08BD00D20400A0
:1006A00000200C4206000E0000ED00E0FF030040B9
:1006B000F8590D00000004E055CEACC5090001005A
:1006C0004FF06043D3F8802E30B5D20715D5012402
:1006D0000B4D8440D5F8FC2042F08072C5F8FC2018
:1006E000D3F8002E2243C3F8002E53F82020002A0E
:1006F000F0D003F82010002030BD1120FCE700BF2F
:1007000000ED00E0042838B504460D4616D905284A
:1007100004D141F6FF73EB40DB0704D440F2FE3115
:10072000084804F0CDFC24200121444304F1804416
:1007300001FA05F504F5C044656138BD4FF6FF7355
:10074000E9E700BF2E590000042838B504460D46DD
:1007500016D9052804D141F6FF73EB40DB0704D41A
:1007600040F22D41084804F0ABFC24200121444311
:1007700004F1804401FA05F504F5C044256138BD53
:100780004FF6FF73E9E700BF2E59000010B504468D
:100790000121094800F07AFB0121084800F076FBAE
:1007A000A3782078B3FA83F3042261785B0901F01F
:1007B00047F8002010BD00BF4081040000D20400B3
:1007C00038B504784578042C15D9052C04D141F6A8
:1007D000FF73EB40DB0704D44FF48961074804F052
:1007E0006FFC24220123544304F18044AB4004F500
:1007F000C044A36138BD4FF6FF73EAE72E590000ED
:1008000070B506780546042E44781AD9052E04D111
:1008100041F6FF73E340DB0704D44FF483610A48D9
:1008200004F04EFC24235E43084B334404EBC30422
:10083000A4002068AB78C0B213B9B0FA80F04009C8
:1008400070BD4FF6FF73E5E72E5900000C601002F3
:1008500070B5044601250B4E04B970BD94FAA4F09E
:10086000B0FA80F005FA00F306EB001224EA030464
:100870005368002BF0D0117B11B191689847EBE7DA
:100880009847E9E7BC10002008B50B2000F0BEFE39
:1008900028B14FF40062074BC3F880211A60012091
:1008A00000F0B4FE20B10222024BC3F880211A608E
:1008B00008BD00BF00E100E038B505460C4604F075
:1008C0009CFC0022044B03EB05135C601A73BDE82B
:1008D000384004F098BC00BFBC10002070B504463E
:1008E00015460E4604F089FC084B03EB04135A68C6
:1008F0004AB9FF2C03D00122C3E901651A7304F041
:1009000082FC204670BDFF24F9E700BFBC10002028
:10091000074BD3F81001D3F81421104020F42A50CB
:1009200020F02A004004400CC3F81C01FFF790BFE0
:1009300000600040074BD3F81001D3F81421104099
:1009400020F4AA4020F055000004000CC3F81C015C
:10095000FFF77EBF00600040431EB3F5004F10B5A7
:10096000044604D2B4FA84F0C0F11F0010BD40F672
:100970005A51034804F0A4FB002CF3D12020F3E7E4
:10098000E759000008B5194B5B6903F4E063B3F560
:10099000407F16D00DD8B3F5807F20D0B3F5007F0F
:1009A00018D0F3B141F26561114804F089FB0023CE
:1009B0000EE0B3F5C06F16D0B3F5E06FF2D10D4B7A
:1009C00006E000F0DBFF0C4B0C4A122898BF1346E0
:1009D000184608BD00F0D2FF094B0A4AF5E70A4B5A
:1009E000F6E70A4BF4E70A4BF2E700BF00800C4041
:1009F0003A5A0000406F4001804F120040420F0001
:100A000040B56400C0CF6A00C0D8A700809FD50061
:100A1000003FAB01034B5A6DD20702D41A6D10424E
:100A2000FCD1704700800C4008B500F0AFFF4A28A9
:100A300005D0792803D0482818D1104815E010496E
:100A40001048D1F8E030D1F8E820D1F8EC101B02C2
:100A500003F47C53C1F3031102F0F0020B43134380
:100A6000064AB3F5017F38BF104608BD064841F27B
:100A7000E15104F025FB0020F7E700BF0048E80142
:100A800000FF0FE000366E013A5A000010B5044630
:100A9000FFF7CAFFA04210D2FFF7C6FFB4EB400F2A
:100AA0000ED90222012307498B6707494B6823F4BB
:100AB000807343EA02234B6010BD00221346F2E725
:100AC0000122FBE70000904300800C40134B5B6861
:100AD00013F0060F03F00702114B01D0042A18D1BE
:100AE000984212D800230F4A0F4902448A420AD280
:100AF000002B14BF0323012308494A6822F0070290
:100B000013434B6070475B00F6E70423F4E70523CB
:100B1000F2E79842FBD80123E5E700BF00000C4054
:100B20000048E801FFDB0BFF0024F40070B541F63C
:100B30007136064CE56BE663FFF748FCADB2FFF794
:100B4000C5FFB5421CBF0023E36370BD00000C402D
:100B500070B541F67136054CE56BE663ADB2FFF753
:100B6000B5FFB5421CBF0023E36370BD00000C401D
:100B700008B5C0F30313013B0C2B5BD8DFE803F08F
:100B8000075A5A0D5A5A151E485A5A5A18002B4BD2
:100B90001868C0F38230013008BD284B986800F017
:100BA0000F00BDE8084004F015BB244B5868F6E779
:100BB000224B5868C0F300200130F2E7204B9842E6
:100BC00020D00DD81F4B984212D003F582239842B3
:100BD00013D041F6F8311C4804F072FA0120DBE72B
:100BE0001A4B9842F5D1154B986E00F00300D8E7E8
:100BF000124B986EC0F30310D3E7104B986EC0F3FE
:100C00000320CEE70D4B986EC0F301300430C8E7E7
:100C10000F4B984206D003F50433984205D041F6B5
:100C20001141D8E7054B186FDFE7044B186FC0F38D
:100C30000110B6E741F61841CDE700BF00800C4037
:100C400080002A00801612003A5A000080062E000A
:100C500090071A00C0F30313013B10B50C460C2B90
:100C600000F20581DFE813F00D0003010301250008
:100C70000301030144006700D100030103010301E4
:100C800038004C1E072C04D941F64541794804F040
:100C900017FAFFF74BFF784B196821F4E03141EA6E
:100CA00084341C60FFF7FAFBBDE810400021FFF719
:100CB0004FBF4B1EB3F5007F04D341F658416D483A
:100CC00004F0FEF92046FFF747FE6B4A936823F0D5
:100CD0000F030343936010BD0846FFF73DFE664ACD
:100CE0000138536823F4807343EA00235360F2E72A
:100CF0004B1EB3F5007F04D341F66E415D4804F00E
:100D0000DFF9FFF713FFFFF7C9FBB0FBF4F0FFF7C4
:100D1000BDFE2046FFF720FE574A536823F00F031D
:100D200003435360FFF7BAFB0021FFF711FFBDE853
:100D30001040FFF7ABBE514B98424FD00DD8504BEF
:100D4000984220D003F58223984232D041F6C74121
:100D5000BDE81040474804F0B3B94A4B9842F5D17A
:100D6000082904D941F6B941424804F0A9F9042000
:100D7000FFF750FE2046FFF7EFFD3F4A936E23F04A
:100D80000303034313E0B1F5004F04D941F68C414E
:100D9000384804F095F90420FFF73CFE2046FFF7A1
:100DA000DBFD354A936E23F0F00343EA00139366AC
:100DB00091E7B1F5004F04D941F69A412D4804F06E
:100DC0007FF90420FFF726FE2046FFF7C5FD2A4ADB
:100DD000936E23F4706343EA0023E8E7A1F1100364
:100DE000702B04D941F6A941224804F069F9042086
:100DF000FFF710FE2046FFF7AFFD1F4A0438936E41
:100E000023F4405343EA0033D1E71F4B984206D006
:100E100003F50433984216D041F6ED4198E70829CE
:100E200004D941F6D041134804F04AF94020FFF7B5
:100E3000F1FD2046FFF790FD0F4A136F23F00303E7
:100E40000343136747E7082904D941F6DF410948FE
:100E500004F036F94020FFF7DDFD2046FFF77CFD6A
:100E6000054A136F23F0300343EA0013E9E741F624
:100E7000F3416DE73A5A000000800C4080002A00E0
:100E80008016120080062E0090071A00C0F303237C
:100E9000013B70B504460E46092B23D8DFE803F06A
:100EA00029051522222C1C22221F0020144DC4F3D8
:100EB000043408B1FFF7AEFD05F1424505F5801594
:100EC00004EBC504A400266070BDFFF7E7FAFFF746
:100ED000DDFD0C4D0020EAE710200B4DE7E7002078
:100EE0000A4DE4E741F67951BDE87040084804F046
:100EF000E7B80020074DDAE70120074DD7E700BF2C
:100F000044800C4040800C4060800C4078800C4055
:100F10003A5A000008800C4058800C4000F00F0046
:100F2000013808B506284CD8DFE800F00414254B3A
:100F30004B333B00294BDB6A03F47053B3F5805FFE
:100F40004AD0B3F5005F45D0B3F5006F14BF05205C
:100F5000042008BD214A936A03F00303013B022BDE
:100F600002D81F4AD05CF4E7936A13F4803F0CBFA9
:100F700001200A20EDE7194A936A03F00C03082BBD
:100F800028D00C2B24D0042B26D0936A13F4801F76
:100F9000EDE7124B1B6813F0805F0CBF07200920A0
:100FA000D7E70E4BDB6A03F46033B3F5803F11D013
:100FB000B3F5003F10D0B3F5004F14BF0120092056
:100FC000C7E7084842F2CA2104F07AF80020C0E7D7
:100FD0000620BEE70220BCE70320BAE700800C40F1
:100FE0008D5A00003A5A000038B52F4B04469842FB
:100FF00007D02E4B984204D041F6DC012C4804F077
:101000005FF82046FFF78AFF274A054694420DD035
:10101000264B9C4215D041F60B11254804F050F8A0
:10102000032D39D8DFE805F03D171B1F214B9B6AC4
:1010300003F00303013B022B1CD8DFE803F00C1084
:1010400014001C4B9B6AC3F38103032B24D8DFE8F5
:1010500003F01302060ABDE8384004F02BB8BDE8DF
:101060003840FFF747BAFFF719FA134B9C6F01346A
:10107000E04038BD944202D00C4B9C4211D10D4B44
:10108000986A094B9C420CBF10241424E040F0D015
:10109000BDE8384004F011B841F63611044804F0B8
:1010A0000FF80020E5E700BF02001E00030020004B
:1010B0003A5A000000800C400000904338B500F41C
:1010C0007813B3F5E01F054600F087802ED8B3F5FE
:1010D000801F00F0918018D8B3F5802F50D006D82B
:1010E0007BB1B3F5003F53D041F6A9617FE0B3F582
:1010F000602FF9D15048FFF711FF07287CD009284D
:1011000073D1BDE83840FFF765B9B3F5B01F43D0E0
:10111000B3F5D01F5BD0B3F5901FE5D14748FFF77B
:1011200063FF474B9B6EC3F303132FE0B3F5281FF8
:101130003AD00DD8B3F5001F47D0B3F5181F5FD0D4
:10114000B3F5F01FD0D13D48BDE83840FFF74CBFA4
:10115000B3F5381F31D0B3F5781F63D0B3F5301F26
:10116000C2D13648FFF740FF354A936EC3F30133CF
:10117000D840D36F03F007030133B0FBF3F006E070
:10118000FFF728F92E4B9B6803F00F03D84038BDBA
:10119000BDE83840FFF782B92848FFF725FF284B04
:1011A0009B6EC3F30323F1E72448FFF71DFF244B95
:1011B0009B6EC3F301330433E8E72048FFF714FFC5
:1011C0001F4B9B6E03F00303E0E71E48BCE71D487E
:1011D000FFF70AFF1A4B1B6FF4E71A48FFF704FFEB
:1011E000174B1B6FC3F30113D0E741F29F61164801
:1011F00003F066FF0020CAE7BDE83840FFF7C2BB36
:101200001248FFF78BFE032808D009283FF479AF76
:101210000228EFD1BDE83840FFF76CB9BDE838408F
:1012200003F048BFFFF73AF904462846FFF7A0FC51
:10123000B4FBF0F0ABE700BF06000E0002001E009A
:1012400000800C40030020003A5A000007232600CB
:1012500010B504461120FFF761FE042804D142F6C0
:101260003C210D4803F02CFF08230C4A136213683D
:10127000E17823F4D16323F007030B43617843EA59
:101280004123217843EA8103A178002914BF8021FA
:1012900000210B43136010BD3A5A000000800C403F
:1012A00070B505461120FFF739FE022804D142F639
:1012B000FA21154803F004FF4FF40073134E336214
:1012C0002B78AC7813F0020F14BF4FF400530023B7
:1012D0006A78E40244EA82441C4303F07FFF3368E7
:1012E0005C4024F07F4424F4730424F4474424F045
:1012F000FF045C40346003F075FF2B78044A03F070
:101300000103C2F8A03470BD3A5A000000800C40BE
:1013100000008C43014B1880704700BF92100020E2
:10132000014B1880704700BF90100020042810B4B3
:1013300006D80E4B51B90E4A32F810201A6212E04C
:1013400042F6C8310B4810BC03F0BABE0A490B4C38
:10135000095C34F8100018622AB1094B0B449B0059
:101360001A68002AFCD010BC704700BF00800C40F7
:10137000A05A00003A5A0000905A0000965A000005
:101380006001E41010B50446A0B901221146FFF730
:10139000CDFFFFF7CBFBC4B904220E4B5A62FFF717
:1013A0007DF8FFF773FBFFF779F8BDE810400021E7
:1013B000FFF7CEBB012802D102460146E7E742F221
:1013C0000331054803F07CFEE3E7012CE7D103225B
:1013D000004BE3E700800C403A5A000008B5FFF7E5
:1013E00023FB0130FFF752FBFFF768F8104A114B5F
:1013F000984213684FF0020096BF23F0600343F059
:10140000600343F02003136001221146FFF78EFFB3
:10141000FFF78CFB0222064B5A62FFF73FF8FFF7FB
:1014200035FBFFF73BF8BDE808400021FFF790BB14
:1014300000800C400048E80110B500F00F04631E66
:10144000062B00F2CD80DFE803F0044E4ECBCB91AB
:10145000A3000239082940D8DFE801F042051A311B
:101460003F3F3F3F38000120032401221146FFF790
:101470005DFFFFF75BFB5C4B5C62FFF70FF8044618
:10148000FFF704FB2046BDE810400021FFF760BBDA
:10149000FFF7CAFA0130FFF7F9FAFFF70FF8534BDD
:1014A000514A98424FF002001368044696BF23F059
:1014B000600343F0600343F020031360D5E7FFF7B8
:1014C000B3FA0130FFF7E2FA0320CEE742F2F84127
:1014D000BDE81040464803F0F3BD42F2FD41F7E796
:1014E00000200424C1E70139092930D8DFE801F0E0
:1014F00032141C2F2F242F2F2F05012300213A48AF
:10150000022C826A29D122F4803222F003020A439B
:1015100042EA0343836210BD012200201146FFF717
:1015200005FF00230221EAE7012211461046FFF7DA
:10153000FDFE00230121E2E7FEF7B0FFFFF7A6FA68
:1015400001222C4B0321C3F810280023D7E742F2D5
:10155000A651BDE700231946D1E71B0522F48012EE
:1015600043EA810322F00C021343D3E7072904D096
:10157000092908D042F20161AAE71B4A136823F047
:1015800080531360C7E7184A136843F08053F8E7A5
:1015900003290FD0092919D002291ED101220020C8
:1015A0001146FFF7C3FE40220F4B5A62DA6AD0039E
:1015B000FCD5B0E7012211461046FFF7B7FE6022C6
:1015C000094B5A62DA6A9103FCD5A4E72022064B44
:1015D0005A62DA6A1204FCD59DE74FF4195177E795
:1015E00042F2367174E700BF00800C400048E80109
:1015F0003A5A000000009043034B5868C0F30800BB
:10160000003818BF0120704700ED00E038B5C5B2C2
:10161000262D044604D940F21631074803F050FD48
:10162000064B640953F8240005F01F05E840C04349
:1016300000F0010038BD00BFAA5A000000E100E040
:1016400045F60E0238B5154B154DD3F88440C3F856
:1016500084202A6804F0010422F0AA02D205D20DE7
:101660001A62104B1B78032B12D0042B12D0022BC2
:1016700002D10020FFF786FE2B68DB075EBF022247
:10168000064B1A621CB10022044BC3F8842038BDFB
:101690000120EFE7FFF7A2FEEEE700BF00800C405D
:1016A000BC1200203E1C002010B504798378094943
:1016B00023430478CA6A43EA0443C478407822F496
:1016C000803243EA440322F01F0243EA001313432B
:1016D000CB6210BD00600C40042838B504460D46AE
:1016E00016D9052804D141F6FF73EB40DB0704D47B
:1016F00040F22D41084803F0E3FC2420012144433B
:1017000004F1804401FA05F504F5C044256138BDB3
:101710004FF6FF73E9E700BF2E590000042838B5E3
:1017200004460D4616D9052804D141F6FF73EB4057
:10173000DB0704D440F2FE31084803F0C1FC24204A
:101740000121444304F1804401FA05F504F5C04445
:10175000656138BD4FF6FF73E9E700BF2E59000001
:10176000062810B5044603D94D21064803F0A8FC0D
:10177000054AD2F8203123F4407343EA0423C2F827
:10178000203110BDFE5A000000600040042870B5F2
:10179000054614461E463BD9052804D141F6FF7282
:1017A000CA40D30703D4BF211F4803F089FC072C8C
:1017B0004FF007012FD8A3001C4805FA03F2994007
:1017C00003F033FD1F2C03D99121194803F078FC55
:1017D000184D1F2C25444FEA85052E6003D9912111
:1017E000134803F06DFC9DF81030134AC5F88030A3
:1017F00001231F2C03FA04F3C2F81C3103D99121F1
:101800000B4803F05DFC9DF81430C5F8003170BD45
:101810004FF6FF72C4E7A4F10800800005FA00F259
:1018200081400648CCE700BFFE5A0000006100403E
:10183000525B0000400883100060004004610040DB
:101840000428F8B505460C4616461F4628D9052833
:1018500004D141F6FF73E340DB0704D44FF4B071C9
:10186000194803F02DFC26B121462846DFB1FFF7C9
:1018700033FF2423072C4FF00F0105FB03F315D88A
:10188000A00006FA00F281401048184403F0CDFC95
:10189000C6B9214628468FB1BDE8F840FFF71CBF06
:1018A0004FF6FF73D7E7FFF739FFE2E7A4F108002F
:1018B000800006FA00F281400548E6E7BDE8F840FE
:1018C000FFF72CBFF8BD00BFFE5A000004600040C7
:1018D00008600040012838B504460D4603D9A4210C
:1018E000084803F0EDFB15F07F4F03D0A921054810
:1018F00003F0E6FB24B1012C01D1034B1D6038BD80
:10190000024BFBE7A55B00000C0008400800084004
:10191000427803780AB143F0020382780AB143F0B7
:101920000403014A136070470000084010B50446E4
:1019300018B957210F4803F0C3FB0F4AD2F8E4301F
:10194000D2F8E0109B0003F03C03C1F381110B437C
:10195000A370D2F8E03003F03F036370D2F8E830B0
:10196000D2F8EC2003F0F003C2F303121343237008
:1019700010BD00BFF85B000000FF0FE0024BD3F882
:10198000FC00000E704700BF0081E00F024BD3F84F
:10199000FC00C0F3074070470081E00F094B9842FC
:1019A0000DD003F58063984209D003F58063984217
:1019B00005D003F58063C31A58425841704701208F
:1019C000704700BF000001402DE9F84F05460C4666
:1019D000FFF7E4FF18B9A5212A4803F071FB21782D
:1019E00009B902236B60002360786B620028607A7B
:1019F00014BF4FF040084FF000080028A07A14BF31
:101A00004FF0800E4FF0000E0028E07A14BF4FF028
:101A1000200C4FF0000C0028207B14BF102700275B
:101A200000282079A378E27894F806A094F807902B
:101A300094F808B0647914BF08260026002814BF63
:101A40004FF400500020002C14BF4FF080540024AD
:101A5000120442EA036343EA0B0343EA8A2343EA9C
:101A6000092343EA080343EA0E0343EA0C033B431A
:101A70003343034323432B6009B101236B60BDE86B
:101A8000F88F00BF4E5C000070B505460C46164648
:101A9000FFF784FF18B9FB211C4803F011FB022C4F
:101AA00003D9FC21194803F00BFB737832781B062D
:101AB00043EA8263B27903341343B278240143EAE0
:101AC0000243F27843EA0233327943EA822372799D
:101AD00043EA0223F279002A14BF4FF400120022D5
:101AE0001343327A002A14BF4FF4801200221343AA
:101AF000727A002A14BF102200221343B27A002AFD
:101B000014BF0422002213432B5170BD4E5C000011
:101B100007B5064B18681B79009068468DF80430AD
:101B2000FFF7C2FD002003B05DF804FBA35C0000DA
:101B300007B5084B186801900748FEF7C5FC01A8D7
:101B4000FFF786FB4FF4FA70FFF7EAFB002003B0C3
:101B50005DF804FBA85C0000006CDC026FF004027E
:101B6000A02110B50A480B4C12F0800FD3B21BBF56
:101B700003F00F03043BA3181B1802F101020CBF72
:101B800083F800131976272AEED1002010BD00BF7C
:101B900000ED00E000E100E010B5044603F01EFB9C
:101BA000024B1C6003F01EFB002010BDC012002081
:101BB00010B503F013FB034B1C6803F013FB204626
:101BC00010BD00BFC012002010B50020144603F065
:101BD0004DFB18B1BF21024803F072FA204610BD38
:101BE000AC5C0000034B0222186800238068194691
:101BF00002F0F8BA2410002008B520B14FF4847127
:101C0000044803F05DFA4FF06042D2F8803E1B02B8
:101C1000FBD408BD1E5D000010B5002003F0BBFA28
:101C2000044630B90448FFF7B7FF0449044800F000
:101C300045F9204610BD00BF1810002010100020EC
:101C4000C4120020054B1A782AB95B78002B14BF08
:101C50000220032070470120704700BF451C002070
:101C60000329F8B505460E4607D8174B5C5C032DD3
:101C700019D8DFE805F0090F121540F23331134887
:101C800003F01EFA0024F2E744F00204104B1F6830
:101C90007FB9F8BD44F00804F8E744F02004F5E704
:101CA00044F08004F2E74FF45271084803F008FA58
:101CB000ECE77B681A68144203D0314628465B681B
:101CC00098473F68E4E700BFF25D0000855D0000D3
:101CD000D012002038B5104D2B78ABB10F4C2378C3
:101CE0001BB103F020FB00232370002003F01CFB3A
:101CF0000B4C50B100F02CF90023012120782B70FF
:101D0000FFF7AEFF0123237038BD0122054B1A7087
:101D10002278054B1A70F7E7441C0020411C002074
:101D20003F1C0020431C0020471C002070B503F01E
:101D300055FA124E054633789BB900F0EBF904468C
:101D400020B1284603F04EFA204670BD0C4803F03F
:101D5000B8F900F0B7FB0B4B1C6000F015FA0A4B0A
:101D6000186000F0CDF803F0E1FA084B0024186089
:101D700001232846337003F035FAE5E7421C0020C2
:101D8000D0120020D8120020D4120020CC12002043
:101D90002DE9F843441EE3B2012B0D4604D94FF45C
:101DA000CA71324803F08CF9314E335DFF2B05D1F7
:101DB00065B140F297112D4803F082F9335D2BB9DC
:101DC00025B940F29911294803F07AF9002D14BF82
:101DD0000122FF22335D134433553DD0254F39781E
:101DE000012939D9FFF72EFF0128044636D803F020
:101DF000F5F9DFF88480054698F8003013B31F4EDC
:101E000033781BB9012232701D4A1370DFF87490C9
:101E100099F8003023B103F086FA002389F80030E6
:101E2000284603F0DFF9012003F07EFA03F0D6F92B
:101E3000337805461BB100F08BF800233370002384
:101E400088F80030284603F0CDF93878A04203D056
:101E50002146FFF705FF3C70BDE8F8830329F4D164
:101E60000228F2D100F0AAF8EFE700BF855D00007C
:101E7000451C00203F1C0020441C0020401C00206A
:101E8000431C0020411C002038B503F0A7F9094B82
:101E900005461B78012B04D803F0A4F90024204642
:101EA00038BD054B1C6800F07BF80444284603F05D
:101EB00099F9F4E73F1C0020D812002038B54160A2
:101EC000044603F08BF9054621460448FEF718FB4B
:101ED0002846BDE8384003F085B900BFD012002085
:101EE000054B1B685843054B00F5742000F23F205A
:101EF000B0FBF3F0704700BFD412002040420F0047
:101F000008B50E4BDB6A03F00403002B14BF01225B
:101F100000220B4B1A7005D04FF41670FFF7E0FF4C
:101F2000084B18606420FFF7DBFF074A136803447F
:101F30001360024BDA6A054B1A6008BD00800C4042
:101F4000491C0020E4120020E8120020DC120020CE
:101F500038B50E4C0E4D23782BB92B781BB103F0FE
:101F6000E9F90C4B186003F05EF92B7863B10A4A6B
:101F7000D36A1B07FCD503F0DDF9064B1B68C01ABA
:101F8000064B18600023237038BD00BF481C00209A
:101F9000491C0020E012002000800C40E4120020C8
:101FA000044B1B680BB103EBD303034A10681844BE
:101FB000704700BFE4120020E812002045F60E0230
:101FC000074BD3F88410C3F88420064A126802F441
:101FD000A0721A62CA0744BF0022C3F88420704767
:101FE00000800C40DC12002010B500F0B1F90A4C62
:101FF0000A4B19682368C31A01B10BB9206010BDE0
:102000004A699A423ABF9B1A0022D21A4A6128BFF3
:1020100000238968F0E700BFEC120020F8120020CE
:10202000C38870B504460D463BB9FFF72DFF8542C6
:10203000064602D203F06CF935460F4965610B681C
:10204000ABB90C60A36011E0AD1A9A6818466561DF
:102050002AB113465A69AA42F6D950B11A46134614
:102060008460A36013B15969491B596170BD002098
:10207000F0E70C60F5E700BFF812002038B5134D0B
:102080002B685B6993B1124A022014681C4400F06B
:102090006FF9204600F09AF900230E492A680B7068
:1020A000D088800709D501230B7038BD022000F0CD
:1020B0005FF9022000F0C0F9EEE79268002AF4D040
:1020C00050690344012BEBD9EFE700BFF812002061
:1020D000EC1200204B1C0020002103460C48026833
:1020E0007AB19A420AD19A6879B18A60986858B1EF
:1020F00042695B691A444261002070471146926848
:10210000EEE7002BEFD0022070470260EEE700BF41
:10211000F812002070B503F070F8144E05463478BC
:10212000FCB9134B1C60134B1C60134B1C8000F05C
:10213000DDF8012000F01CF900F086F90F4B024693
:10214000186020B9284603F05EF8232070BD2346AE
:1021500040F2E7310A4801F0E7FD0A4B186001231D
:102160003370284603F04FF80020EFE74A1C0020A8
:10217000F8120020EC1200203C1C0020F412002079
:1021800018FCFFFFF0120020014B1868704700BFD9
:10219000F4120020C2072DE9F84F04460BD54F4A30
:1021A000138801339BB21380FFF71EFF4C4B1B6853
:1021B0000BB1FFF763FFA30740F18E8003F01DF81A
:1021C0004FF0000A05465646FFF70EFFD046444F33
:1021D000DFF810913C680CB163698BB10022424B6F
:1021E000012E1A7003D11AF0020F18BF1E70002CB6
:1021F00062D0FFF743FF2846BDE8F84F03F003B86D
:1022000023461A792179914288BF1C469B6813B1F5
:102210005A69002AF5D0284602F0F5FFD4F810A03C
:10222000BAF1000F4CD000F093F8A269851AEB17B1
:10223000AA4578EB030344DA236913440122A3611E
:1022400023691BB312BBEB17BAEB050563EB430322
:10225000002B04DA40F22151484602F031FFA38BF3
:1022600033B1E28B13449BB2B3F57A7F1CD2E38384
:1022700002F0C3FF824629462046FFF7D1FEA3693C
:10228000226950461344A36102F0BDFFE368B4F82D
:1022900006A0013613B120462168984702F0ADFF31
:1022A0000546FFF7A1FE95E7A3F57A73E383A369DB
:1022B000013D013BA361DBE7022000F071F89AE7E2
:1022C000554602F09AFF83462046FFF705FF584621
:1022D00002F099FF0022B3E7BDE8F88F3C1C002014
:1022E000F8120020F65D00004C1C002013B5144BC2
:1022F000144C1A889B7820460121ADF804208DF8F3
:102300000630FEF7A7FC01212046FEF7BFFD0024A2
:10231000012301A88DF804308DF80640FFF7F8FA84
:10232000094BDA6922F00702DA6107229A614FF05D
:1023300080425C60054BC3F880211A6002B010BD7A
:102340005D5E0000801612000000084000E100E021
:10235000054A064B50681B781169C90744BF50688D
:10236000013340EA03607047000008404D1C002024
:10237000820700F0010309D5074A117821B1042032
:10238000064988610021117043F00403034AD169B2
:102390000B43D361704700BF971000200000084036
:1023A000820744BF0121074A00F0010348BF1170B2
:1023B000054948BF43F00403CA6922EA0303CB611D
:1023C000704700BF971000200000084038B5044651
:1023D00002F004FF0546FFF7BBFF154A03461269EA
:1023E00012F0040F134A06D11168091A032902D802
:1023F0001168814213D1E11A022998BFDC1C013C0B
:1024000014601068C31AB3F1807F0DD211680120E7
:1024100021F07F41FFF75EFA0220FFF7A9FF28466F
:10242000BDE8384002F0DEBE0220FFF7B9FFF6E754
:1024300000000840FC120020830742BF0422014B29
:102440005A617047000008400148FEF737BE00BFE0
:102450008016120070B502F0D0FE174B06461D69BB
:1024600015F0010417D0154A14781378A4F1FF0170
:102470000133DBB21370124B4C424C411968137894
:10248000A1EB0361B1F1807F05D20120FFF722FAB1
:102490000220FFF76DFF6B07074B05F0050548BFEE
:1024A00044F002049D6114B12046FFF773FE3046EC
:1024B000BDE8704002F0A7BE000008404D1C00209F
:1024C000FC1200200A4B10B59B6A03F00303013B8A
:1024D000012B0BD802F082FE044601210220FFF7F7
:1024E00057FC2046BDE8104002F07CBE10BD00BF86
:1024F00000800C4000F5F153224A08335B01D158AB
:102500001C2370B5204C054603FB0044A669337DAF
:10251000032B10D000F0A2FE237D43F0200323758F
:1025200000237363637D63BBA0696FF00B01BDE89B
:10253000704000F047BF736B53B900F0EDFE134BD2
:10254000F17B53F82520681CBDE8704001F05CBAAF
:10255000F27B9A4294BF9B1ADB1A736353B100F06B
:10256000DBFEF17B736B094A994228BF194652F88A
:102570002520E8E700F072FE237D43F02003237559
:10258000D0E770BD00400C40141300203062000002
:1025900010B5037BC47A03F003030375E309837664
:1025A000C3680D29C3F30F23C3824FF0000390F9D2
:1025B0000B204477037706D90648E62102F080FD18
:1025C0006FF0030010BD002AB4BF417601761846B3
:1025D000F8E700BF605E000040F2012238B5428398
:1025E0001C2203460163407E1B6A4243044CA5182B
:1025F000A3500024C5E9021400F08EFE204638BD29
:10260000141300204FF4007238B542831C22034695
:102610000163007E1B6A4243044CA518A3500024AA
:10262000C5E9021400F078FE204638BD14130020DE
:1026300070B51C26027E0E4B7243002599189850E7
:1026400008220446C1E902258861407E06FB00336A
:102650009C6140F201332263638300F00BFE207E15
:10266000A57600F007FE207E00F056FE284670BDDD
:10267000141300202DE9F84FDDF834808A46934684
:102680009946044638B94FF49A712B4802F018FD68
:102690006FF0030012E0294A1278032AF8D10C9B4C
:1026A0009B0702D040F23F11EFE702F0A6FD267F24
:1026B00005462EB102F0A7FD6FF00100BDE8F88FCE
:1026C0001C211F4F627E01FB0272527D22B1207ECF
:1026D00001FB00777A7D2AB9284602F094FD6FF05D
:1026E0000D00EBE7BDF8283084F800A0A380BDF80A
:1026F0002C3084F801B0E380012323770E9BA4F8EB
:102700000290A3620C9B84F824602362E662C4F802
:1027100034802672B8F1000F06D00A4B414653F8B8
:102720002020013001F070F92046FFF781FF284694
:1027300002F069FD0020C1E7605E00004E1C002031
:102740001413002030620000F0B587B004460D4637
:1027500016461F4602F05AFD40B115484FF4D3719A
:1027600002F0AEFC6FF0030007B0F0BDFEF744FFCF
:102770000028F2D10F9B049003930E9B32460293E4
:10278000BDF8343029460193BDF83030204600931F
:102790003B46FFF76FFF0028E6D194F82430002B6A
:1027A000FBD094F925000028DED1E06ADCE700BF09
:1027B000605E0000024B1878C31E584258417047B3
:1027C0004E1C00201FB540B940F2B1210D4802F067
:1027D00077FC6FF0030004B010BD11B94FF42E71F7
:1027E000F4E792B24FF47A7401920022CDE9021418
:1027F00000928021062243F400732430FFF7A4FFE7
:10280000E9E700BF605E00001FB548B940F2E7216C
:102810000D4802F055FC6FF0030005B05DF804FBB5
:1028200011B940F2EE21F3E74FF47A73CDE90213C8
:10283000002392B20192009306224FF4807380210C
:102840002430FFF781FFE8E7605E0000024BD3F819
:102850004004C0F3414070470000104038B538B91B
:1028600040F26531194802F02BFC6FF0030038BDCF
:1028700003683F2B0AD941683F2907D982683F2A5C
:1028800004D90B441344B3F5F96F02D940F26F3108
:10289000E8E70F4C0FC884E80F0000242025FEF75E
:1028A0009DFD01F015F80B4B1C7002F0A6FC0A4BC5
:1028B0005D621A6C42F00C021A6402F0A4FC074B31
:1028C000C3F880511D602046D1E700BF605E000064
:1028D000041300204E1C002000800C4000E100E0AA
:1028E00010B5044602F092FC38B1124840F25F4144
:1028F00002F0E6FB6FF0030010BDFEF77DFE00283E
:10290000F3D102F07AFC0C4A0C49D2F840340B4067
:1029100054B143F48053C2F8403402F074FCFA20FE
:1029200000F07EFF0020E7E7C2F84034044B1C7043
:10293000F3E700BF605E000000001040D1EFFFFF32
:102940004E1C002070B50D46044638B922484FF49D
:10295000926102F0B5FB6FF0030070BD1F4801F0FB
:102960009FFB21781E4801F09BFB61781D4801F018
:1029700097FB61881C4801F093FB21791B4801F00B
:102980008FFB61791A4801F08BFBA179194801F09E
:1029900087FBE179184801F083FB217A174801F0A1
:1029A0007FFB21786A1A002A01DC0020D5E76388C2
:1029B000591A9142A8BF11460029F6DD0931104E7F
:1029C00004F109050C44A542EFD0304615F8011B6F
:1029D00001F066FBF7E700BF605E0000755E000077
:1029E000915E0000AB5E0000C95E0000E35E000087
:1029F000FD5E0000175F0000315F00004F5F0000C8
:102A00006A5F000010B5044638B9224840F2C4415C
:102A100002F056FB6FF0030010BD1F4801F040FBB1
:102A200021781E4801F03CFB61781D4801F038FB1D
:102A300061881C4801F034FB21791B4801F030FB10
:102A400061791A4801F02CFBA179194801F028FBA3
:102A5000E179184801F024FB2189174801F020FB97
:102A60006189164801F01CFBA189154801F018FB8B
:102A7000A17B144801F014FBE17B134801F010FB2B
:102A8000217C124801F00CFB617C114801F008FB2D
:102A90000020C1E7605E0000725F0000915E0000F0
:102AA000AB5E0000875F0000A55F0000BF5F000015
:102AB000D95F0000F35F00000D6000002B60000094
:102AC0004960000067600000816000009B600000BA
:102AD000B560000010B5044638B9124840F2F24122
:102AE00002F0EEFA6FF0030010BD0F4801F0D8FAC3
:102AF00021780E4801F0D4FA61780D4801F0D0FA3F
:102B0000A1780C4801F0CCFAE1780B4801F0C8FA42
:102B1000A1880A4801F0C4FAA179094801F0C0FA75
:102B20000020E1E7605E0000D0600000915E0000E0
:102B3000AB5E0000E7600000315F0000056100004F
:102B40001F61000010B5044638B918484FF4A3615E
:102B500002F0B6FA6FF0030010BD154801F0A0FABC
:102B60002178144801F09CFA6178134801F098FA32
:102B7000A178124801F094FAE178114801F090FA36
:102B80002179104801F08CFA61790F4801F088FA38
:102B9000A1790E4801F084FAE1790D4801F080FA3C
:102BA000217A0C4801F07CFA0020D5E7605E000035
:102BB0003A610000915E0000AB5E000052610000CF
:102BC0006C61000086610000A0610000BE61000031
:102BD000DC610000FA61000010B5044630B940F233
:102BE000B751084802F06CFA204610BD0378122B4A
:102BF00005D14378012B0CBF04460024F4E70024E0
:102C0000F2E700BF605E00002DE9F84F0D469046E8
:102C10001F46044640B942484FF4777102F050FA1B
:102C20006FF00300BDE8F88F6822002102F0D7FCA6
:102C30009DF82830C4E9178784F865300823638736
:102C40005DB105F1240304F1240205F15C0153F8A0
:102C5000040B8B4242F8040BF9D100264FF4807329
:102C6000646384F83860A387B8F1000F13D1B5B955
:102C70000020D7E709FB06FBE06D3822002158440D
:102C800002F0ADFCE36D01365B441C6183F81BA0D0
:102C9000BE42EFDBEBE74FF03809B246F8E72B46D0
:102CA000224605F1100153F8040B8B4242F8040B45
:102CB000F9D11B88284613800022D5F8123011461E
:102CC000C4F81230D5F81630C4F81630AB7EA376AF
:102CD00002F098FB0368C4F81B304368C4F81F3047
:102CE000037A84F82330B8F1000FC1D000264FF0EA
:102CF000380A12E00022E36D11460AFB0638284626
:102D0000334602F0A7FB03680136C8F80930838810
:102D1000A8F80D30837988F80F30BE42EADBA7E7C8
:102D2000605E00002DE9F8431D46374B04461B78D2
:102D30000F46032B164690F819900DD1B2F5002FCF
:102D400005DAC38A92FBF3F3B3F5806F07DB40F239
:102D5000D6612E4802F0B4F96FF003000DE08B0746
:102D600002D040F2DC61F4E702F047FA227F8046AD
:102D70002AB102F048FA6FF00100BDE8F883A37EA3
:102D800023B902F040FA40F2EA61E2E71C2101FBBC
:102D900009F1DFF87CC00CEB010393F815E0BEF1FC
:102DA000000F04D102F02FFA6FF00D00E5E70220CA
:102DB00020770898C4E90B2684F82420A0622762B3
:102DC0006563C3E902624CF801709C61237D032BAB
:102DD00004D1E37BB5B19D42A8BF1D463DB1607EE5
:102DE0000C4B294653F82020013000F00DFE607E88
:102DF00000F040FA607E00F08FFA404602F003FADD
:102E00000020BAE71D46E9E74E1C0020605E000086
:102E10001413002030620000F7B504460D46164634
:102E20001F4602F0F3F940B10F4840F2397102F049
:102E300047F96FF0030003B0F0BDFEF7DDFB00289B
:102E4000F2D100903B46324629462046FFF76AFF02
:102E50000028F0D194F82430002BFBD094F9250001
:102E60000028E8D1E06AE6E7605E000030B50D4674
:102E7000044685B040B940F264710E4802F020F972
:102E80006FF0030005B030BD0B0602D540F26A7149
:102E9000F3E700214FF47A730522CDE90213CDE95F
:102EA00000112B462430FFF74FFC0028EAD184F8AC
:102EB0006450E7E7605E00007FB50B46044640B90A
:102EC000104840F2D37102F0FBF86FF0030004B039
:102ED00070BD00214FF47A72CDE90011CDE90212E4
:102EE00024300922FFF730FC0028F0D103463825B2
:102EF0000646216E9942EADDE26D05FB03220133AD
:102F0000D676F7E7605E000010B5002000F058FDAF
:102F10000D4C012000F054FD022000F051FD02F0A4
:102F20006CF904F57032936823F00103936002F0AA
:102F30006AF90020FFF7D4FC0023044AA361136C54
:102F400023F00C03136410BD00400C4000800C40C3
:102F50002DE9F74F074648B95C4840F6920102F068
:102F6000AFF86FF0030003B0BDE8F08F00244FF41A
:102F70007A75A2464D43DFF85881DFF85891564ED6
:102F8000C8F80040D9F81830DA0708D5D6F8403428
:102F9000DB0404D50020FFF7A3FC05B1FA344F4B46
:102FA00000211846382202F01AFB0122427580F8EF
:102FB000312002F022F94A4B8346D3E90112186806
:102FC00000F0B6F82022474B5846C3F8802102F0A3
:102FD0001AF905B132340120FFF782FC05B1FA3449
:102FE00002F00BF94FF0FF33C6F818A0736073615D
:102FF0004FF00C53B361B368DFF8ECB043F001035A
:10300000B36002F000F9394B9BF80020032A24D06A
:103010000DB1AC4252DAD3F8180AB0B92E4AD2F840
:10302000403423F49773C2F84034D2F8403423F488
:10303000815323F00E03C2F8403400F0C1FC042396
:103040006FF00F008BF800308DE7322000F0E8FBC6
:10305000264B002DD8D03234D6E7642000F0E0FBB8
:1030600005B16434D6F840343846C3F34143009385
:1030700000231A461946FFF7C7FD0822394638468D
:10308000FFF7C2FB08281CD00DB104F57A74FFF7D6
:103090003BFF174A136C43F00C03136415B1FA3469
:1030A000A54210DD0322D8F800300133B3FBF2F261
:1030B00002EB42029B1AC8F8003063E76FF00B0086
:1030C00051E700204FE76FF00E004CE7605E000014
:1030D0000013002000400C4000001040141300209A
:1030E0000413002000E100E04E1C002000100C4200
:1030F00000800C4010B50D4CD4F8003E23F00103C5
:10310000C4F8003ED4F8003E23F00C03C4F8003E9F
:10311000236943F0010323612369DB07FCD4012009
:1031200000F09EFB2369002BFCDA10BD000010406C
:10313000F8B585088E08454801211746FDF7A6FE1B
:103140000521002308460422FEF77AFB062105200C
:1031500001230222FEF774FB03223D4B3D4C9A6192
:10316000FFF7C8FFE36823F0604343F00053E360D8
:1031700002F03FF8642000F053FB02F036F8D4F878
:103180000034354A23F0070343F00503C4F8003444
:10319000A36802EA873223F03E0343F02203A360D0
:1031A000C5F30903636243EA0643A3624FF48463F1
:1031B0003544C5F30A051543C4F80051236123695A
:1031C0009B06FCD410232361236913F01003FBD169
:1031D0001A4641F628664FF080454FF0FF341C48F0
:1031E00091194901455000EB4211013201F571314D
:1031F0000E2AC1F80841F3D100214A0102F1402210
:1032000002F57C242246D4F8000540F04040C4F882
:10321000000500BF00BF00BF00BF00BF00BFD2F865
:1032200000050028F5DB01310E29E6D10021084810
:1032300000EB4312013302F571320E2BC2F80C1170
:10324000F6D1044B0020C3F81814F8BD00D20400D6
:1032500000400C40000010400000FF0300F5F1505A
:10326000034B083041F0404140011950704700BF06
:1032700000400C401C2370B54FF0FF35234C244A0E
:1032800003FB0043996902EB401303F57133C3F864
:1032900008510D7D460115B1AB1E012B05D8022347
:1032A000324402F57132C2F80C311C2303FB004496
:1032B000002301226360174B8240D3F8184400F5C5
:1032C000F15022430C69C3F81824CB8A94F8642087
:1032D00043EA854343EA82534A7F0830D20202F42C
:1032E000F04213438A7E4001002A14BF4FF400428B
:1032F0000022134394F86520022A0CBF4FF40032D9
:1033000000221343024A135070BD00BF1413002063
:1033100000400C40000010401C220023F0B5254D59
:1033200002FB005293829368002B3ED092695C1E90
:10333000D28A1444B4FBF2F4A4B21C2202FB005261
:1033400091698A7E0AB1CB8A63431C2646439BB2AD
:10335000AA191361CA7E184F520702F0C04207EA49
:10336000C44422431343154A40010244C2F81031B9
:10337000AB5900F18040C2F814310A7D00F580108D
:10338000032AD0F8003512D10D4A23F0C043D2F8F9
:10339000082412F0010F14BF00224FF00052134313
:1033A00043F00043C0F80035F0BD0124C5E723F029
:1033B0004043F5E7141300200000F81F00041040FC
:1033C0000000104001232DE9F04180F82430002353
:1033D0000377037D04460F46426B214D80F825108C
:1033E0003BBB94F90030007E002BACBF0646667EE6
:1033F00012B1013000F0E4FA1C22012102FB065652
:10340000F368E362B3682363637E02FB0353597579
:10341000237E02FB0355E388697503B9E362A36A5F
:10342000E3B100223846A262D4E90B12BDE8F041B4
:103430001847817E81B1467E0AB9032B02D1701CE8
:1034400000F0BEFA1C2303FB065501236B75EB68E5
:10345000E362AB682363E2E7067EEDE7BDE8F08157
:103460001413002008B51F4B1F49D3F8402412F055
:10347000010034D002F4C022B2F5802F21D141F2F4
:103480007072C3F80424D3F8002422F0030242F03F
:103490000202C3F8002402230B70144B00201A68A8
:1034A000134B03EBC2035968124A00F0ADFA0D4A00
:1034B000D2F8403423F4977343F48073C2F8403455
:1034C00008BDB2F5003FE6D14BF68032C3F80424C4
:1034D000D3F8002422F0030242F00102D9E7087079
:1034E000EEE700BF000010404E1C0020001300203B
:1034F00018620000F9340000074AD2F8403413F093
:10350000010304BF05490B70D2F8403423F49773CC
:10351000C2F84034704700BF000010404E1C00202D
:103520002DE9F04701F069FE944B07465D699A6901
:10353000154003D1BDE8F04701F065BEA8016ED586
:1035400000264FF001084FF0FF39D3F814A48C4C3B
:103550001AEA080F5CD0730103F1804000F5801077
:10356000D0F8001503F1402303F5402303F5713330
:1035700011F40041D3F80821D0F8000577D0910765
:1035800046D502F021012129C3F808911FD1D3F8B3
:1035900010212169C2F31202A1EB020C521AA16898
:1035A000C4F80CC00A44A260D3F81031002113F013
:1035B000C04F0CBF00220222A369DA7610F4402F1C
:1035C000A0697FD101F0CBFF22E00126C0E71107FF
:1035D00075D4D30502D56FF00601EFE7237D02F421
:1035E0008261B1F5806F03F0200306D12BB96368C7
:1035F0000133022B6360EEDC59E002F49262802A10
:1036000004D1002BF3D06FF00B01D7E7002BFAD1D8
:103610004FEA48081C34002ED7D025F00075EA0187
:1036200021D5564B574ED3F840443278022AD0B2B7
:103630004BD0032850D068B904F00303032B09D101
:1036400001233370504B514A1968514B53F83110D4
:1036500000F0DAF9494B24F02E0444F02A04C3F8B0
:10366000404425F08075AB0051D4384662E712F033
:10367000020FCDD002F0210CBCF1210FC3F808914C
:103680000CD1A268C4E90212D3F8103113F0C04F74
:103690000CBF00220222A369DA768FE712F008033A
:1036A0000DD1110607D512F0300FA0D0636030465F
:1036B000FFF732FEACE7237D9906A9D5A3E76FF0AB
:1036C00004017BE701F084FFA2E704F00D030D2B5A
:1036D000C0D103233370BDE704F00C02082AB9D12E
:1036E0002C4AD2F8180A0028B4D1D3F8402422F486
:1036F0009772C3F84024D3F8402422F4815222F078
:103700000E02C3F8402400F05BF90423E2E74FF017
:1037100000530025194C284663611A4BC4F818540D
:103720001D7000F04DF9D4F84034284623F4977307
:10373000C4F84034D4F80015FFF790FD4FF0FF3384
:103740000F4DC4F808356B7D23B96FF00C01A869E3
:10375000FFF738FE0120D4F82015FFF77FFD4FF06A
:10376000FF33C4F8283595F83130002B7FF47DAF56
:103770006FF00C01686BFFF725FE76E70000104044
:10378000141300204E1C002000130020653400009C
:103790001862000000100C42074982B04A6A92B2D7
:1037A0004B6A9BB2ADF80630BDF806309B1A9BB24F
:1037B0008342F5D302B0704700000140154A38B586
:1037C0001369DB0625D5102313499361536B0968F0
:1037D000124C0B449BB2536301F00FFD2368054666
:1037E0004BB11A68013A1A60002223680BB11868BD
:1037F00030B102B123602846BDE8384001F003BD76
:103800009968187301225B680029EFD0236088470C
:10381000EAE738BD000001405C1300204C13002093
:10382000F8B544F621670C4B0C4E1C68A0FB044510
:10383000BC4275F1000305D2A0B258B1BDE8F84012
:10384000FFF7AABF44F62060FFF7A6FFA41965F1B1
:103850000005EDE7F8BD00BF5C130020E0B1FFFFFD
:10386000F8B5174B1C68A0FB044554EA050310D1BA
:103870000A24B0FBF4F4134B1D68A4FB054554EA7D
:10388000050306D16424B0FBF4F00F4B1C68A0FBC9
:1038900004454EF661270D4EBC4275F1000305D27A
:1038A000A0B258B1BDE8F840FFF776BF4EF66020F1
:1038B000FFF772FFA41965F10005EDE7F8BD00BF41
:1038C000581300205413002050130020A015FFFFB0
:1038D00070B50025012488B00D22002104A801F054
:1038E0007EFE2C48CDE901558DF810400395FDF77B
:1038F000E5FB4FF47A7200F5FA73B3FBF2F3264E50
:10390000264A336000F5F42303F59073B3FBF2F31A
:10391000234A21461360234A00F543435033B3FB47
:10392000F2F3214A00F59C50136042F21073083004
:10393000B0FBF3F01D4B1E4C186002231D488DF8A0
:103940000A30FDF7A3FA4FF6FF732946E3612046DC
:1039500001AAFEF799F8204604A9FEF735F84FF0C2
:10396000FF33A361E36843F01003E360656A3368E3
:103970001D44B5F5803F04D34FF44B710E4801F060
:103980009FFB04220D4B6563C3F880211A6008B0C9
:1039900070BD00BF408104005C13002040420F0056
:1039A00058130020A086010054130020501300205B
:1039B00000000140005204006862000000E100E0E5
:1039C00070B5044601F019FC0D4A13687BB1002163
:1039D0000C4D260105EB0414217319468C425B68DB
:1039E00009D11BB11968AC59214419601360BDE8B5
:1039F000704001F008BC0A1D002BEED1F7E700BFB4
:103A00004C130020601300202DE9F84381460C463A
:103A1000904601F0F2FB204D064605EB09131B7B97
:103A20004FEA091713B14846FFF7CAFF44B9B8F186
:103A3000000F00D0C0473046BDE8F84301F0E3BBBB
:103A4000012305EB070C8CF80C3000231348CCF84D
:103A500008800268CCF804306AB9EC51C0F800C0A4
:103A6000E9E7536823B9611AE951C2F804C0E2E7F3
:103A7000101D1A460B4611681944A142F1D9A4EB56
:103A8000030E45F807E0E9194A6011681B1B0B4457
:103A9000C0F800C01360CEE7601300204C13002074
:103AA0000122014B1A707047501C002010B50848C5
:103AB000084C03232146B0F80D20FFF7ADF9082884
:103AC00005D1A07818B1BDE8104000F001BB10BDD1
:103AD000F813002030140020F8B5FEF7B7FE284D8B
:103AE00002464FF48061284601F0DEFC04460028BF
:103AF00044D12E896F89FEF7A9FE224A224B314616
:103B0000012818BF13463A46204800F0C9FA284653
:103B1000FFF762F8FEF776FF2146284601F04DFCDC
:103B20000921FEF70FFF22462146284601F06AFCD4
:103B3000FFF708F800222846114601F063FC0379DC
:103B40009C420CDB00220E48114601F05BFC4379DD
:103B5000032B0ED10E4800F03DFB0120F8BD0022E2
:103B600023461146284601F075FCFEF7B3FF0134E9
:103B7000E0E7084800F02EFB0020EFE70648F9E7F1
:103B800030180020C2620000BD620000C662000062
:103B9000FF620000126300004A630000002273B558
:103BA000204E1146304601F02DFC04461E4800F020
:103BB00077FA617A1D4800F073FAA17A1C4800F088
:103BC0006FFAB4F80B101B4800F06AFA617B1A48D0
:103BD00000F066FAA17B194800F062FAE17B184810
:103BE00000F05EFAB4F81110164800F059FAFEF72A
:103BF0002DFE154C154D01232A46314600902046D6
:103C0000FFF702F801212046FFF730F9E17D204659
:103C1000FFF752F90221284602B0BDE87040FEF7D6
:103C2000B7BC00BF301400207D6300008E6300002D
:103C3000AA630000CA630000EA6300000A6400008F
:103C4000266400004664000090130020F813002052
:103C50002DE9F04385B06C46274B284F0FCB84E805
:103C60000F0004211120FDF7E7FB01212448FDF797
:103C70000DF92046FEF7F2FD224D0A213846FFF7E6
:103C800067F910F10F0F044603D11F4800F0A2FAA4
:103C9000F3E710F1100F01D11C48F7E708B11C48F9
:103CA000F4E7FFF719FF0028E7D0FFF777FF194B7C
:103CB000194E1C70194B0120194AF17B2C701C7095
:103CC000FFF7A2FEDFF85C80DFF85490FEF772FD8C
:103CD00018B90120FFF774FECFE72B78002BF5D041
:103CE000404600F0DDF9FFF7E1FE4A460120F17B96
:103CF0002C70FFF789FEE9E704650000301400200E
:103D000000D20400501C002063640000A064000086
:103D1000D36400004F1C0020F8130020511C002029
:103D2000A13A0000EA64000053B94AB9002908BF6B
:103D300000281CBF4FF0FF314FF0FF3000F076B984
:103D4000ADF1080C6DE904CE00F006F8DDF804E0F2
:103D5000DDE9022304B070472DE9F047089E0D46C7
:103D600004468846002B4DD18A42944668D9B2FA5F
:103D700082F252B101FA02F3C2F1200120FA01F1FC
:103D80000CFA02FC41EA030894404FEA1C41B8FBDC
:103D9000F1F71FFA8CFE01FB178807FB0EF0230CCE
:103DA00043EA084398420AD91CEB030307F1FF35A5
:103DB00080F01E81984240F21B81023F63441B1A2F
:103DC000B3FBF1F001FB103300FB0EFEA4B244EA9A
:103DD0000344A6450AD91CEB040400F1FF3380F02C
:103DE0000981A64540F20681644402380021A4EB13
:103DF0000E0440EA07401EB10023D440C6E9004348
:103E0000BDE8F0878B4208D9002E00F0EE8000213B
:103E1000C6E900050846BDE8F087B3FA83F100293A
:103E20004AD1AB4202D3824200F2FC80841A65EB95
:103E3000030301209846002EE2D0C6E90048DFE7E0
:103E400002B9FFDEB2FA82F2002A40F09180A1EBC3
:103E50000C0001214FEA1C471FFA8CFEB0FBF7F360
:103E600007FB1300250C45EA00450EFB03F0A842B2
:103E700008D91CEB050503F1FF3802D2A84200F275
:103E8000CE8043462D1AB5FBF7F007FB10550EFB0D
:103E900000FEA4B244EA0544A64508D91CEB04047C
:103EA00000F1FF3502D2A64500F2B6802846A4EB09
:103EB0000E0440EA03409EE7C1F120078B4022FA3E
:103EC00007FC4CEA030C25FA07FA4FEA1C49BAFB37
:103ED000F9F820FA07F309FB18AA8D401FFA8CFEA7
:103EE0001D4300FA01F308FB0EF02C0C44EA0A44CF
:103EF000A04202FA01F20BD91CEB040408F1FF3ACC
:103F000080F08880A04240F28580A8F102086444D5
:103F1000241AB4FBF9F009FB104400FB0EFEADB20D
:103F200045EA0444A64508D91CEB040400F1FF351A
:103F30006CD2A6456AD90238644440EA0840A0FB26
:103F40000295A4EB0E04AC42C846AE4656D353D0FD
:103F5000002E69D0B3EB080264EB0E0422FA01F3E1
:103F600004FA07F71F43CC40C6E90074002147E775
:103F70000CFA02FCC2F1200125FA01F34FEA1C47BA
:103F800020FA01F195400D43B3FBF7F107FB113324
:103F90001FFA8CFE280C40EA034001FB0EF383421B
:103FA00004FA02F408D91CEB000001F1FF382FD20B
:103FB00083422DD902396044C01AB0FBF7F307FBE6
:103FC0001300ADB245EA004503FB0EF0A84208D944
:103FD0001CEB050503F1FF3816D2A84214D9023BA9
:103FE0006544281A43EA014138E73146304607E77D
:103FF0002F46E4E61846F9E64B45A9D2B9EB02088C
:1040000065EB0C0E0138A3E74346EAE7284694E740
:104010004146D1E7D0467BE76444023847E7023B9C
:1040200065442FE7084606E73146E9E6704700BFDA
:1040300008B5074B044613B10021AFF30080054BD0
:104040001868836A03B19847204601F03AF900BF27
:10405000000000001465000070B500260C4D0D4CEA
:10406000641BA410A64209D101F006FC00260A4DEB
:104070000A4C641BA410A64205D170BD55F8043B40
:1040800098470136EEE755F8043B98470136F2E7CA
:104090009810002098100020981000209C100020FC
:1040A0000FB40A4B13B51C6824B1A36913B9204699
:1040B00000F01EFB05AB2046049AA168019300F0B6
:1040C000B9FC02B0BDE8104004B0704724100020D5
:1040D00038B5084B05461C6824B1A36913B92046BE
:1040E00000F006FB29462046A268BDE8384000F0F3
:1040F000F7BE00BF2410002070B50E46054618B16B
:1041000083690BB900F0F4FAAB69AC6813B92846BF
:1041100000F0EEFA2C4B9C4220D16C68636EDB07FA
:1041200005D4A389980502D4A06D01F096FAA3895D
:1041300019071DD52369DBB1013EA36816F8011FDD
:10414000013BA36039BB002B38DA22460A212846FE
:1041500000F00EF9013011D00A2511E01B4B9C42F2
:1041600001D1AC68DAE71A4B9C4208BFEC68D5E78E
:104170002146284600F04EF90028DDD04FF0FF35EB
:10418000636EDA0705D4A3899B0502D4A06D01F004
:1041900065FA284670BD002B04DAA2699A4206DC53
:1041A0000A2904D023685A1C22601970C5E72246E8
:1041B000284600F0DDF80130BFD1DFE70A2523688B
:1041C0005A1C22601D70DBE738650000586500004E
:1041D00018650000024B01461868FFF78DBF00BF4D
:1041E000241000202DE9F7431D465D4B04461F684F
:1041F0000E46904627B1BB6913B9384600F078FAED
:10420000584B9C4267D17C68B8F1020F06D0B8F1D8
:10421000010F00F29F80002DC0F29C80636EDB07CF
:1042200005D4A389980502D4A06D01F016FA2146A1
:10423000384600F0DFF9616B41B104F14403994263
:1042400002D0384600F01AFB002363630023A36109
:104250006360A389190603D53846216900F00EFB77
:10426000A389B8F1020F23F44A6323F00303A38167
:104270006CD001AB6A462146384601F0F0F9A389BB
:104280001843A081002D30D1009D284600F0EEFAA1
:104290000646002855D1DDF80090A9454AD14FF0D7
:1042A000FF350022A26004F1470222602261012250
:1042B000B4F90C306261626E43F00203D207A3814D
:1042C00005D413F4007F02D1A06D01F0C7F9284690
:1042D00003B0BDE8F083244B9C4201D1BC6893E756
:1042E000224B9C4208BFFC688EE7002ECDD0BB69F4
:1042F00013B9384600F0FCF9B8F1010F08BFA389E3
:10430000C4E9046504BF43F00103A381A2892660C8
:1043100012F008031CD0D30741BF00236D42A360F5
:10432000A56158BFA560656E15F0010515D112F4A1
:10433000007FC8E7484600F099FA06460028AED04C
:104340004D46A38943F08003A381D0E70025A8E769
:10435000A360E8E74FF0FF35B9E70025B7E700BFF6
:104360002410002038650000586500001865000022
:10437000F8B50E461446054618B183690BB900F02E
:10438000B7F9214B9C422BD16C68A369A360A38928
:104390001A072FD523696BB323692068F6B2C01AB8
:1043A00063693746834204DC2146284600F022F93F
:1043B00030BBA3680130013BA36023685A1C226014
:1043C0001E706369834204D0A389DB0706D50A2ED9
:1043D00004D12146284600F00DF988B93846F8BDC9
:1043E0000A4B9C4201D1AC68CFE7094B9C4208BF05
:1043F000EC68CAE72146284600F00CF80028CBD02C
:104400004FF0FF37EAE700BF38650000586500004D
:1044100018650000324B70B51D6806460C4625B184
:10442000AB6913B9284600F063F92E4B9C420FD1BB
:104430006C68A389B4F90C2019072CD4DD0611D4BB
:104440000923336042F040034FF0FF30A3813EE088
:10445000254B9C4201D1AC68EBE7244B9C4208BF42
:10446000EC68E6E7580712D5616B41B104F14403EB
:10447000994202D0304600F001FA00236363A38919
:1044800023F02403A3810023636023692360A389AD
:1044900043F00803A38123694BB9A38903F4207374
:1044A000B3F5007F03D02146304600F09FF9A08984
:1044B000B4F90C2010F001030AD00023A360636953
:1044C0005B42A361236943B910F08000BAD170BD8B
:1044D000810758BF6369A360F4E70020F7E700BFD6
:1044E00024100020386500005865000018650000A1
:1044F0008A89F8B5054610070C4657D44B68002B3F
:1045000004DC0B6C002B01DC0020F8BDE66A002EF9
:10451000FAD0002312F480522F682B6032D0606DE5
:10452000A3895A0705D56368C01A636B0BB1236C66
:10453000C01A00230246E66A2846216AB047431C97
:10454000A38906D129681D292CD8294ACA40D60733
:1045500028D5002262602269D904226004D5421C59
:1045600001D12B6803B96065616B2F600029CBD046
:1045700004F14403994202D0284600F07FF900205C
:104580006063C2E7216A01232846B047411CC7D1B6
:104590002B68002BC4D01D2B01D0162B01D12F600E
:1045A000B2E7A38943F04003A381AEE70F69002F70
:1045B000AAD0930718BF00230E6808BF4B69F61BEB
:1045C0000F608B60002E9FDD33463A462846216AF5
:1045D000D4F828C0E047002806DCA3894FF0FF305C
:1045E00043F04003A38190E70744361AEAE700BF8F
:1045F0000100402038B50B6905460C4613B900256B
:10460000284638BD18B183690BB900F071F8144B16
:104610009C421BD16C68B4F90C30002BEFD0626E59
:10462000D00704D4990502D4A06D01F016F82846ED
:104630002146FFF75DFF636E0546DA07E0D4A389E4
:104640009B05DDD4A06D01F009F8D9E7054B9C422C
:1046500001D1AC68DFE7044B9C4208BFEC68DAE7A5
:10466000386500005865000018650000002310B58B
:104670000446C0E90033C0E90433836081814366A6
:10468000C2818361194608225C3000F0A8FF054B07
:1046900024626362044BA362044BE362044B236312
:1046A00010BD00BFD5570000F75700002F5800007D
:1046B00053580000014900F0B0BF00BFF5450000AD
:1046C000014800F0CABF00BF531C0020014800F0A1
:1046D000C5BF00BF531C0020014800F0BEBF00BF93
:1046E000541C0020014800F0B9BF00BF541C00203A
:1046F00010B50446FFF7F0FFA3691BB1BDE81040F9
:10470000FFF7F0BFC4E912332365134B134A1B684C
:10471000A262A34208BF0123204608BFA36100F0A4
:104720001FF86060204600F01BF8A060204600F0F3
:1047300017F800220421E0606068FFF797FF01226C
:104740000921A068FFF792FF02221221E068FFF71B
:104750008DFF0123A361D1E714650000B546000079
:10476000F8B50746FFF7ACFF1E4B1E68B36913B9D7
:104770003046FFF7BDFF4836D6E90134013B03D58B
:1047800033680BB33668F7E7B4F90C50D5B9164B5C
:1047900004F15800E360656600F05EFFFFF796FFE6
:1047A00008222946C4E90155C4E904552560A561DC
:1047B00004F15C0000F013FFC4E90D55C4E9125583
:1047C0002046F8BD6834D9E70421384600F00FFFD1
:1047D000044630600028D5D1FFF778FF0C233B60FA
:1047E000EEE700BF146500000100FFFF8B8973B581
:1047F0009D0706460C4607D504F147032360236155
:104800000123636102B070BD6A4601AB00F027FF6F
:1048100000990546304600F099F848B9B4F90C30D3
:104820009A05EFD423F0030343F00203A381E3E7E7
:104830000D4BB362A389206043F08003A381009BEA
:1048400020616361019B5BB13046B4F90E1000F04A
:10485000D3FB28B1A38923F0030343F00103A38111
:10486000A0890543A581CDE7B5460000024B01466E
:10487000186800F06BB800BF2410002038B505465A
:10488000002940D051F8043C0C1F002BB8BFE4189D
:1048900000F0D4FB1C4A136833B9636014602846E7
:1048A000BDE8384000F0D0BBA34208D920682118E9
:1048B0008B4201BF19685B6809182160EDE71A4651
:1048C0005B680BB1A342FAD911685018A0420BD112
:1048D00020680144501883421160E0D118685B6879
:1048E000014411605360DAE702D90C232B60D6E74C
:1048F000206821188B4201BF19685B680918216084
:1049000063605460CBE738BD301C002070B50E4E9C
:104910000C463168054611B900F02AFB306021468B
:10492000284600F025FB431C0AD0C41C24F00304D5
:10493000A04207D0211A284600F01AFB013001D10D
:104940004FF0FF34204670BD341C00202DE9F041AB
:10495000CD1C25F0030508350C2D38BF0C25002D86
:10496000074601DBA94205D90C2300263B603046EF
:10497000BDE8F0812E4E00F061FB33681C4634BB6D
:1049800029463846FFF7C2FF431C04464DD1346820
:104990002646002E40D123683146384604EB0308F2
:1049A00000F0E6FA80453AD1216803356D1A25F00A
:1049B000030508350C2D38BF0C2538462946FFF76E
:1049C000A5FF01302BD023682B4423600EE0226822
:1049D000521B1ED40B2A16D96119A342256018BF99
:1049E0005960636808BF316062514B60384604F11A
:1049F0000B0600F029FB26F00706231DF21AB6D09D
:104A00009B1BA350B3E76268A3420CBF32605A609D
:104A1000ECE723466468B2E734467668B9E70C23CE
:104A200038463B6000F010FBA1E72560DEE700BFE1
:104A3000301C00202DE9F04F0D46144698460646DE
:104A40009DB018B183690BB9FFF752FE894B9D42A7
:104A50001BD175686B6ED90705D4AB899A0502D452
:104A6000A86D00F0FAFDAB891B0701D52B69EBB9E6
:104A700029463046FFF7CEFCC0B16B6EDC070ED581
:104A80004FF0FF301DB0BDE8F08F7B4B9D4201D150
:104A9000B568DFE7794B9D4208BFF568DAE7AB8977
:104AA0009805EDD4A86D00F0D9FDE9E7002309933E
:104AB00020238DF8293030234FF00109CDF80C80E8
:104AC000DFF8BC818DF82A3023469A4613F8012B73
:104AD0000AB1252AF9D1BAEB040B0BD05B4622466A
:104AE0002946304600F0F5FD013000F0AA80099A11
:104AF0005A4409929AF80030002B00F0A28000235B
:104B00004FF0FF32CDE905230AF1010A0493079320
:104B10008DF853301A935446052214F8011B584857
:104B200000F09BFE049AD8B9D10644BF20238DF82B
:104B30005330130744BF2B238DF853309AF80030BD
:104B40002A2B15D0544600204FF00A0C079A214614
:104B500011F8013B303B092B4ED9B0B1079214E05C
:104B6000A0EB080309FA03F31343A2460493D2E728
:104B7000039B191D1B680391002BBBBF5B4242F0D6
:104B8000020207930793B8BF049223782E2B0CD10F
:104B900063782A2B35D1039B02341A1D1B680392BC
:104BA000002BB8BF4FF0FF330593DFF8D8A00322E6
:104BB0005046217800F051FE40B14023A0EB0A009E
:104BC00003FA00F0049B01340343049314F8011B1F
:104BD00006222D488DF8281000F03FFE00283FD017
:104BE0002A4B1BBB039B073323F0070308330393B4
:104BF000099B3B44099367E70C4601200CFB0232FA
:104C0000A5E700234FF00A0C19460134059320460E
:104C100010F8012B303A092A03D9002BC5D0059191
:104C2000C3E7044601230CFB0121F0E703AB00932B
:104C30002A463046164B04A9AFF300800746781C7D
:104C4000D6D16B6ED90705D4AB899A0502D4A86D6D
:104C500000F004FDAB895B063FF512AF099811E740
:104C600003AB00932A463046094B04A900F012F822
:104C7000E4E700BF386500005865000018650000D3
:104C8000786500007E65000082650000000000007D
:104C9000D35600002DE9FF470F7E9146782F8046BE
:104CA0000C469A460C9D01F1430207D8622F0AD8A0
:104CB000002F00F0D980582F00F0A48004F14205A5
:104CC00084F842703AE0A7F16303152BF6D801A1EE
:104CD00051F823F02D4D0000414D0000BD4C000067
:104CE000BD4C0000BD4C0000BD4C0000414D00001B
:104CF000BD4C0000BD4C0000BD4C0000BD4C000090
:104D00004F4E0000714D0000314E0000BD4C0000C0
:104D1000BD4C0000714E0000BD4C0000714D000004
:104D2000BD4C0000BD4C0000394E00002B681A1D20
:104D30001B682A6004F1420584F842300123A4E094
:104D400020682968060601F104030AD50E682B6065
:104D5000002E03DA2D23764284F843300A235E487E
:104D600019E00E6810F0400F2B6018BF36B2EFE765
:104D70002B682068191D2960010601D51E6802E014
:104D80004606FBD51E886F2F0CBF08230A23524806
:104D9000002184F843106568002DA8BF2168A56034
:104DA000A4BF21F0040121600EB9002D4DD015469D
:104DB000B6FBF3F103FB1167C75D05F8017D3746CC
:104DC000BB420E46F4D9082B0BD12368DE0708D569
:104DD000236961689942DEBF302305F8013C05F183
:104DE000FF35521B22614B4621464046CDF800A0BC
:104DF00003AA00F080FC01304CD14FF0FF3004B02A
:104E0000BDE8F087344881F845702968236851F877
:104E1000046B29601D0614D5DF0744BF43F020034F
:104E200023601EB9236823F0200323601023AFE71B
:104E3000236843F0200323607823284884F8453012
:104E4000E3E7590648BFB6B2E6E71546BBE72B686D
:104E50002668181D6169286035061B6801D5196030
:104E600002E07006FBD51980002315462361BAE7DE
:104E70002B6800211A1D2A601D686268284600F010
:104E8000ECFC08B1401B606063682361002384F878
:104E90004330A8E72A46494640462369D0470130B7
:104EA000ABD023689B0713D4E068039B9842B8BF3C
:104EB0001846A4E70123324649464046D047013010
:104EC0009BD00135E36803995B1AAB42F2DCEBE758
:104ED000002504F11906F5E7896500009A650000D0
:104EE00070B50D461446064618B183690BB9FFF735
:104EF000FFFB1C4B9C4224D17468636ED80705D419
:104F0000A389990502D4A06D00F0A7FBA368013B1B
:104F1000002BA36005DAA26993421CDBEBB20A2BDB
:104F200019D023685A1C22601D70EDB2636EDA0737
:104F300005D4A3899B0502D4A06D00F08FFB284601
:104F400070BD094B9C4201D1B468D6E7074B9C4227
:104F500008BFF468D1E7294622463046FFF708FA31
:104F60000546E3E738650000586500001865000055
:104F700038B50023054D044608462B60FBF7D0FAF0
:104F8000431C02D12B6803B1236038BD381C0020BC
:104F900038B50446084611460022054D2A601A46D7
:104FA000FCF712FE431C02D12B6803B1236038BD0D
:104FB000381C002038B50023054D044608462B60F8
:104FC00000F07DF9431C02D12B6803B1236038BD8A
:104FD000381C002038B50023064D0446084611460B
:104FE0002B6000F06FF9431C02D12B6803B12360E2
:104FF00038BD00BF381C002038B50023054D0446DD
:1050000008462B6000F063F9431C02D12B6803B102
:10501000236038BD381C002038B5044608461146C8
:105020000022054D2A601A4600F053F9431C02D1B4
:105030002B6803B1236038BD381C0020014800F004
:105040000CBB00BF521C0020014800F007BB00BF92
:10505000521C002038B50446084611460022054D72
:105060002A601A4600F037F9431C02D12B6803B1BD
:10507000236038BD381C0020FBF706B9704708B51F
:10508000FBF7B8FAFBF700FCFBF7F2F8BDE80840C5
:10509000FBF7F4B808B500F00AF8FDF73BF8FCF7A9
:1050A000A1FDBDE80840FCF7B7BD704770470F2071
:1050B0007047FEE74FF4004070474FF47A70704736
:1050C000FEE7002303607047436803B118472220BE
:1050D0007047704738B50D680C462B78022B0CD002
:1050E00069792879FBF72CFAB0FA80F0400928702A
:1050F0002046BDE83840FFF7ECBF38BD036818789C
:10510000704710B504682378022B15D06179207997
:10511000FBF716FAA279012A15D1003818BF012031
:105120004FF6E071638840EA430363F03F039BB2AC
:105130008B4202D12270638010BD4FF6DF72934222
:10514000F9D10022F6E7002AF6D1B0FA80F0400942
:105150002070F1E703681A78022A03D100225A80EE
:10516000FBF710BA704713B504682378022B10D0F0
:10517000A379022B0BD100216079FBF79DFB002363
:10518000627920791146CDE90033FCF7FFFA02235A
:10519000237002B010BD4FF060420123D2F8001E10
:1051A00083400B430020C2F8003E704709C81847EF
:1051B000034659789B7800780BB9FBF7A3BAFBF745
:1051C000C3BA034659789B7800780BB9FBF7BCBA91
:1051D000FBF798BA012303FA00F07047EFF3108051
:1051E00072B6704700B962B67047602383F31188C6
:1051F0007047002383F311887047EFF31180602319
:1052000083F31188704780F311887047EFF31083A0
:10521000DB0706D4EFF311805F2894BF0020012044
:10522000704701207047FCF70BBA70B5054614466D
:105230000E46FFF7D3FF29684C4034404C402C60A9
:10524000BDE87040FFF7CEBF13B50323002401A8CB
:105250008DF805308DF804408DF80640FCF720F8F5
:105260006420FCF757F8204602B010BD70B50C461C
:10527000154610B9FCF79CFC38B143682BB12A469F
:105280002146BDE8704000681847232070BDF7B57F
:105290000D4616461C4638B9FCF78AFC04B901AC29
:1052A00020B9232003B0F0BD03B901AC8768002FFB
:1052B000F7D02346324629460068B847F2E7002077
:1052C0007047FEE74FF4005300204B607047012009
:1052D00070470020704707B5002001AB0190FFF731
:1052E000D6FF0198002808BF4FF0FF3003B05DF8EB
:1052F00004FB38B50C468D18AC4201D1002006E005
:10530000002014F8011BFBF7DBF90028F4D038BDAE
:1053100010B5FFF763FF0446FCF7DCFC2046BDE850
:105320001040FFF75FBF7047012070474FF4966051
:10533000FCF7D6BD38B5FFF760FF0546FDF708F866
:1053400004462846FFF75FFF204638BD08B5FAF748
:1053500059FFFFF794FEFFF79DFEFFF7A6FEBDE89D
:105360000840FFF7A3BE0D20FDF7C4B80C20FDF7E1
:10537000C1B80B20FDF7BEB80A20FDF7BBB8092065
:10538000FDF7B8B80820FDF7B5B80720FDF7B2B8AB
:105390000620FDF7AFB80520FDF7ACB80420FDF7F7
:1053A000A9B80320FDF7A6B80220FDF7A3B8012095
:1053B000FDF7A0B80020FDF79DB838B504460D46AE
:1053C000FDF70AFC78B1437CAB420BDDB4F86A20F0
:1053D00004F168008318E26D00219A4228BF1A4642
:1053E000824201D8002038BD03784BB1092B05D18A
:1053F0004478022C02D18D42F5D001311844EFE7F8
:105400001846F0E7F8B506460F461546FFF7D5FFF4
:1054100010B900242046F8BD0379AB42F9DD00F154
:105420000904791C3046FFF7C8FF00B9F06D00236E
:105430008442EED22278002AEBD0092A08D1617882
:10544000042905D1AB4202D1A1789942E2D00133BF
:105450001444EDE72DE9F04106460F4690461D46FF
:10546000FFF7D0FF18B900242046BDE8F08103798A
:10547000AB42F8DD00F109043946304608F101027B
:10548000FFF7C0FF00B9F06D00238442EBD2227811
:10549000002AE8D0072A05D16178052902D1AB425C
:1054A000E2D001331444F0E7002373B504460D46FF
:1054B0001646194600921A46FDF7A6FB082D04EB86
:1054C00005032A46214628BF0822204684F8656045
:1054D000E365FDF799F9082803D04FF0FF3002B0DB
:1054E00070BDE379122D04F168062A46314628BFC3
:1054F000122220466387FDF787F91228EDD1334643
:10550000224604F1780153F8040B8B4242F8040B55
:10551000F9D11B8831461380A5F11202092A28BF50
:10552000092200232046FDF74DF90928D5D1A36EA5
:10553000683DC4F812307368A28AC4F81630337A12
:10554000AA4228BF2A46A376314600232046FDF70B
:1055500039F911284FF0FF30C8BF0020BFE710B560
:10556000037F0446013B042B0FD8DFE803F003253B
:105570002A2C2C00A1B9C18861B190F90030002B10
:1055800004DAFDF729F80223237710BDFDF73AF876
:105590000323F9E700212046FDF71EF80423F3E773
:1055A000037A0133DBB2012B03720CD1436B53B18D
:1055B000BDE81040FDF73CB829B9FDF723F80523F5
:1055C000E2E70029E6D02046BDE81040FDF7FABE2C
:1055D000037F023B012B01D8FDF7F4BE7047034661
:1055E0000244934200D1704703F8011BF9E7682297
:1055F00070B54D1E55430E4605F17401FFF7A6F92F
:10560000044640B10021C0E900160C30A06005F14D
:105610006802FFF7E4FF204670BD2DE9F843064617
:105620008846002700F14804D4E90195B9F1010941
:1056300005D52468002CF7D13846BDE8F883AB893E
:10564000012B07D9B5F90E30013303D02946304676
:10565000C04707436835E9E770477047704770B542
:105660000E46B1F90E10144600291D4696B008DA10
:105670000022B6F90C302A601A0610D44FF4806369
:105680000EE06A46FFF7A6FC0028F1DB019A02F45F
:105690007042A2F500535A425A412A60EEE7402375
:1056A0000020236016B070BD936810B4013B002B3E
:1056B000936007DA9469A34201DB0A2902D110BC86
:1056C000FEF756BE1368581C10601970084610BCCF
:1056D0007047F8B506460F461446D518AC4201D1BE
:1056E000002007E03A46304614F8011BFFF7DCFFC4
:1056F000431CF3D1F8BD2DE9F047164699468A6858
:105700000B6907469342B8BF1346336091F84320B4
:105710000C46DDF820800AB1013333602368990616
:1057200042BF336802333360256815F0060506D1A1
:1057300004F1190AE36832689B1AAB4228DC94F83A
:105740004320131E226818BF012392062DD4494618
:10575000384604F14302C047013020D02368E56891
:1057600003F00603042B18BF002532684FF0000633
:10577000A36808BFAD1A226908BF25EAE575934200
:10578000C4BF9B1AED181A34B5421AD1002008E0A4
:105790000123524649463846C047013003D14FF0F5
:1057A000FF30BDE8F0870135C4E73020E11881F80B
:1057B00043005A1C94F845102244023382F84310E7
:1057C000C5E70123224649463846C0470130E6D0A6
:1057D0000136D9E710B50C46B1F90E10FFF73AFCC7
:1057E0000028ABBF636DA3891B1823F48053ACBFA3
:1057F0006365A38110BD2DE9F0411F468B890546E5
:10580000DB050C46164605D502230022B1F90E1021
:10581000FFF702FCA389324623F48053A381284674
:105820003B46B4F90E10BDE8F041FFF7B1BB10B52F
:105830000C46B1F90E10FFF7EFFB431CA38915BF0F
:10584000606523F4805343F48053A38118BFA38180
:1058500010BDB1F90E10FFF7ADBB034610B5C9B2CC
:1058600002449342184601D1002003E0047801333A
:105870008C42F6D110BD0000F8B500BFF8BC08BCE2
:105880009E467047F8B500BFF8BC08BC9E467047FE
:1058900054657374696E6720646562756720707201
:1058A000696E746600000000881000208505000005
:1058B000035100005551000067510000FD500000E9
:1058C000941000208D070000B1510000C35100006A
:1058D000C107000001080000433A2F557365727339
:1058E0002F537469616E4A53756C6562616B2F53F7
:1058F000696D706C696369747953747564696F2F2D
:1059000053444B732F6765636B6F5F73646B2F70CA
:105910006C6174666F726D2F636F6D6D6F6E2F7338
:1059200072632F736C5F736C6973742E6300633AD8
:105930005C75736572735C737469616E6A73756CA0
:105940006562616B5C73696D706C696369747973AE
:10595000747564696F5C73646B735C6765636B6FAC
:105960005F73646B5C706C6174666F726D5C656DA7
:105970006C69625C696E635C656D5F6770696F2EF0
:105980006800433A2F55736572732F537469616EC3
:105990004A53756C6562616B2F53696D706C6963F6
:1059A00069747953747564696F2F53444B732F670F
:1059B00065636B6F5F73646B2F706C6174666F727D
:1059C0006D2F6472697665722F627574746F6E2FB5
:1059D0007372632F736C5F73696D706C655F627552
:1059E00074746F6E2E6300633A5C75736572735CDA
:1059F000737469616E6A73756C6562616B5C7369FF
:105A00006D706C696369747973747564696F5C73C4
:105A1000646B735C6765636B6F5F73646B5C706C06
:105A20006174666F726D5C656D6C69625C696E63F2
:105A30005C656D5F636D752E6800433A2F55736525
:105A400072732F537469616E4A53756C6562616B32
:105A50002F53696D706C69636974795374756469E7
:105A60006F2F53444B732F6765636B6F5F73646B6A
:105A70002F706C6174666F726D2F656D6C69622F2B
:105A80007372632F656D5F636D752E63000302068D
:105A90000907030105000001400004000100100097
:105AA00000028000080002002000433A2F55736571
:105AB00072732F537469616E4A53756C6562616BC2
:105AC0002F53696D706C6963697479537475646977
:105AD0006F2F53444B732F6765636B6F5F73646BFA
